{
  "address": "0xC15829ED54a43A4D2Bb5E37EA6348e6932c041a9",
  "abi": [
    {
      "inputs": [
        {
          "internalType": "uint256",
          "name": "entranceFee",
          "type": "uint256"
        },
        {
          "internalType": "uint256",
          "name": "interval",
          "type": "uint256"
        },
        {
          "internalType": "address",
          "name": "vrfCoordinatorV2",
          "type": "address"
        },
        {
          "internalType": "bytes32",
          "name": "gasLane",
          "type": "bytes32"
        },
        {
          "internalType": "uint64",
          "name": "subscriptionId",
          "type": "uint64"
        },
        {
          "internalType": "uint32",
          "name": "callbackGasLimit",
          "type": "uint32"
        }
      ],
      "stateMutability": "nonpayable",
      "type": "constructor"
    },
    {
      "inputs": [
        {
          "internalType": "address",
          "name": "have",
          "type": "address"
        },
        {
          "internalType": "address",
          "name": "want",
          "type": "address"
        }
      ],
      "name": "OnlyCoordinatorCanFulfill",
      "type": "error"
    },
    {
      "inputs": [],
      "name": "Raffle_RaffleNotOpen",
      "type": "error"
    },
    {
      "inputs": [],
      "name": "Raffle_UpkeepNotNeeded",
      "type": "error"
    },
    {
      "inputs": [],
      "name": "Raffle__SendMoreToEnterRaffle",
      "type": "error"
    },
    {
      "inputs": [],
      "name": "Raffle__TransferFailed",
      "type": "error"
    },
    {
      "anonymous": false,
      "inputs": [
        {
          "indexed": true,
          "internalType": "address",
          "name": "player",
          "type": "address"
        }
      ],
      "name": "RaffleEnter",
      "type": "event"
    },
    {
      "anonymous": false,
      "inputs": [
        {
          "indexed": true,
          "internalType": "uint256",
          "name": "requestId",
          "type": "uint256"
        }
      ],
      "name": "RequestedRaffleWinner",
      "type": "event"
    },
    {
      "anonymous": false,
      "inputs": [
        {
          "indexed": true,
          "internalType": "address",
          "name": "player",
          "type": "address"
        }
      ],
      "name": "WinnerPicked",
      "type": "event"
    },
    {
      "inputs": [],
      "name": "NUM_WORDS",
      "outputs": [
        {
          "internalType": "uint32",
          "name": "",
          "type": "uint32"
        }
      ],
      "stateMutability": "view",
      "type": "function"
    },
    {
      "inputs": [],
      "name": "REQUEST_CONFIRMATIONS",
      "outputs": [
        {
          "internalType": "uint16",
          "name": "",
          "type": "uint16"
        }
      ],
      "stateMutability": "view",
      "type": "function"
    },
    {
      "inputs": [
        {
          "internalType": "bytes",
          "name": "",
          "type": "bytes"
        }
      ],
      "name": "checkUpKeep",
      "outputs": [
        {
          "internalType": "bool",
          "name": "upkeepNeeded",
          "type": "bool"
        },
        {
          "internalType": "bytes",
          "name": "",
          "type": "bytes"
        }
      ],
      "stateMutability": "view",
      "type": "function"
    },
    {
      "inputs": [],
      "name": "enterRaffle",
      "outputs": [],
      "stateMutability": "payable",
      "type": "function"
    },
    {
      "inputs": [],
      "name": "i_callbackGasLimit",
      "outputs": [
        {
          "internalType": "uint32",
          "name": "",
          "type": "uint32"
        }
      ],
      "stateMutability": "view",
      "type": "function"
    },
    {
      "inputs": [],
      "name": "i_entranceFee",
      "outputs": [
        {
          "internalType": "uint256",
          "name": "",
          "type": "uint256"
        }
      ],
      "stateMutability": "view",
      "type": "function"
    },
    {
      "inputs": [],
      "name": "i_gasLane",
      "outputs": [
        {
          "internalType": "bytes32",
          "name": "",
          "type": "bytes32"
        }
      ],
      "stateMutability": "view",
      "type": "function"
    },
    {
      "inputs": [],
      "name": "i_interval",
      "outputs": [
        {
          "internalType": "uint256",
          "name": "",
          "type": "uint256"
        }
      ],
      "stateMutability": "view",
      "type": "function"
    },
    {
      "inputs": [],
      "name": "i_subscriptionId",
      "outputs": [
        {
          "internalType": "uint64",
          "name": "",
          "type": "uint64"
        }
      ],
      "stateMutability": "view",
      "type": "function"
    },
    {
      "inputs": [],
      "name": "i_vrfCoordinator",
      "outputs": [
        {
          "internalType": "contract VRFCoordinatorV2Interface",
          "name": "",
          "type": "address"
        }
      ],
      "stateMutability": "view",
      "type": "function"
    },
    {
      "inputs": [
        {
          "internalType": "bytes",
          "name": "",
          "type": "bytes"
        }
      ],
      "name": "perfomUpkeep",
      "outputs": [],
      "stateMutability": "nonpayable",
      "type": "function"
    },
    {
      "inputs": [
        {
          "internalType": "uint256",
          "name": "requestId",
          "type": "uint256"
        },
        {
          "internalType": "uint256[]",
          "name": "randomWords",
          "type": "uint256[]"
        }
      ],
      "name": "rawFulfillRandomWords",
      "outputs": [],
      "stateMutability": "nonpayable",
      "type": "function"
    },
    {
      "inputs": [],
      "name": "s_lastTimeStamp",
      "outputs": [
        {
          "internalType": "uint256",
          "name": "",
          "type": "uint256"
        }
      ],
      "stateMutability": "view",
      "type": "function"
    },
    {
      "inputs": [
        {
          "internalType": "uint256",
          "name": "",
          "type": "uint256"
        }
      ],
      "name": "s_players",
      "outputs": [
        {
          "internalType": "address payable",
          "name": "",
          "type": "address"
        }
      ],
      "stateMutability": "view",
      "type": "function"
    },
    {
      "inputs": [],
      "name": "s_raffleState",
      "outputs": [
        {
          "internalType": "enum Raffle.RaffleState",
          "name": "",
          "type": "uint8"
        }
      ],
      "stateMutability": "view",
      "type": "function"
    },
    {
      "inputs": [],
      "name": "s_recentWinner",
      "outputs": [
        {
          "internalType": "address",
          "name": "",
          "type": "address"
        }
      ],
      "stateMutability": "view",
      "type": "function"
    }
  ],
  "transactionHash": "0xe7483054f93c818afb655974872feefe33896cc51da3349272276556a2cbfb06",
  "args": [
    "100000000000000000",
    "300",
    "0x6168499c0cFfCaCD319c818142124B7A15E857ab",
    "0xd89b2bf150e3b9e13446986e571fb9cab24b13cea0a43ea20a6049a85cc807cc",
    "3850",
    "500000"
  ],
  "numDeployments": 1,
  "solcInputHash": "21ed7049db6162e5ecfea32cf936e039",
  "bytecode": "0x6101006040523480156200001257600080fd5b506040516200193b3803806200193b83398181016040528101906200003891906200018f565b838073ffffffffffffffffffffffffffffffffffffffff1660808173ffffffffffffffffffffffffffffffffffffffff1660601b81525050508560a081815250508460c08181525050426002819055508373ffffffffffffffffffffffffffffffffffffffff1660e08173ffffffffffffffffffffffffffffffffffffffff1660601b815250508260038190555081600460006101000a81548167ffffffffffffffff021916908367ffffffffffffffff16021790555080600460086101000a81548163ffffffff021916908363ffffffff1602179055505050505050506200031e565b6000815190506200012d816200029c565b92915050565b6000815190506200014481620002b6565b92915050565b6000815190506200015b81620002d0565b92915050565b6000815190506200017281620002ea565b92915050565b600081519050620001898162000304565b92915050565b60008060008060008060c08789031215620001af57620001ae62000297565b5b6000620001bf89828a016200014a565b9650506020620001d289828a016200014a565b9550506040620001e589828a016200011c565b9450506060620001f889828a0162000133565b93505060806200020b89828a0162000178565b92505060a06200021e89828a0162000161565b9150509295509295509295565b6000620002388262000249565b9050919050565b6000819050919050565b600073ffffffffffffffffffffffffffffffffffffffff82169050919050565b6000819050919050565b600063ffffffff82169050919050565b600067ffffffffffffffff82169050919050565b600080fd5b620002a7816200022b565b8114620002b357600080fd5b50565b620002c1816200023f565b8114620002cd57600080fd5b50565b620002db8162000269565b8114620002e757600080fd5b50565b620002f58162000273565b81146200030157600080fd5b50565b6200030f8162000283565b81146200031b57600080fd5b50565b60805160601c60a05160c05160e05160601c6115c16200037a6000396000818161079b015261086601526000818161063701526106e301526000818161046a015261070c0152600081816103aa01526103fe01526115c16000f3fe6080604052600436106100f35760003560e01c80637ea3e6c11161008a578063aebc455011610059578063aebc4550146102fe578063cc45483f14610329578063d757d02714610354578063f21fbe0f1461037f576100f3565b80637ea3e6c1146102405780638638b0c61461026b5780638e879c8a14610296578063ae771f6b146102c1576100f3565b80635e6c102e116100c65780635e6c102e1461018157806367f082b0146101bf5780636919207d146101ea57806372cf6e3414610215576100f3565b80631fe543e3146100f85780632cfcc53914610121578063348540431461012b578063470cdf9714610156575b600080fd5b34801561010457600080fd5b5061011f600480360381019061011a9190610ecf565b6103a8565b005b610129610468565b005b34801561013757600080fd5b506101406105d5565b60405161014d9190611180565b60405180910390f35b34801561016257600080fd5b5061016b6105db565b60405161017891906111b6565b60405180910390f35b34801561018d57600080fd5b506101a860048036038101906101a39190610e2c565b6105f5565b6040516101b6929190611091565b60405180910390f35b3480156101cb57600080fd5b506101d46106dc565b6040516101e19190611165565b60405180910390f35b3480156101f657600080fd5b506101ff6106e1565b60405161020c9190611180565b60405180910390f35b34801561022157600080fd5b5061022a610705565b604051610237919061119b565b60405180910390f35b34801561024c57600080fd5b5061025561070a565b6040516102629190611180565b60405180910390f35b34801561027757600080fd5b5061028061072e565b60405161028d9190611032565b60405180910390f35b3480156102a257600080fd5b506102ab610754565b6040516102b891906110c1565b60405180910390f35b3480156102cd57600080fd5b506102e860048036038101906102e39190610e75565b61075a565b6040516102f5919061104d565b60405180910390f35b34801561030a57600080fd5b50610313610799565b604051610320919061112f565b60405180910390f35b34801561033557600080fd5b5061033e6107bd565b60405161034b919061114a565b60405180910390f35b34801561036057600080fd5b506103696107ce565b604051610376919061119b565b60405180910390f35b34801561038b57600080fd5b506103a660048036038101906103a19190610ddf565b6107e4565b005b7f000000000000000000000000000000000000000000000000000000000000000073ffffffffffffffffffffffffffffffffffffffff163373ffffffffffffffffffffffffffffffffffffffff161461045a57337f00000000000000000000000000000000000000000000000000000000000000006040517f1cf993f4000000000000000000000000000000000000000000000000000000008152600401610451929190611068565b60405180910390fd5b6104648282610978565b5050565b7f00000000000000000000000000000000000000000000000000000000000000003410156104c2576040517f3038c00a00000000000000000000000000000000000000000000000000000000815260040160405180910390fd5b600060018111156104d6576104d56114a1565b5b60008054906101000a900460ff1660018111156104f6576104f56114a1565b5b1461052d576040517f6eac21ed00000000000000000000000000000000000000000000000000000000815260040160405180910390fd5b6001339080600181540180825580915050600190039060005260206000200160009091909190916101000a81548173ffffffffffffffffffffffffffffffffffffffff021916908373ffffffffffffffffffffffffffffffffffffffff1602179055503373ffffffffffffffffffffffffffffffffffffffff167f0805e1d667bddb8a95f0f09880cf94f403fb596ce79928d9f29b74203ba284d460405160405180910390a2565b60025481565b600460009054906101000a900467ffffffffffffffff1681565b6000606060008060009054906101000a900460ff16600181111561061c5761061b6114a1565b5b600060018111156106305761062f6114a1565b5b14905060007f000000000000000000000000000000000000000000000000000000000000000060025442610664919061127a565b119050600080471190506000806001805490501190508280156106845750835b801561068d5750815b80156106965750805b9550856040518060400160405280600381526020017f30783000000000000000000000000000000000000000000000000000000000008152509550955050505050915091565b600381565b7f000000000000000000000000000000000000000000000000000000000000000081565b600181565b7f000000000000000000000000000000000000000000000000000000000000000081565b6004600c9054906101000a900473ffffffffffffffffffffffffffffffffffffffff1681565b60035481565b6001818154811061076a57600080fd5b906000526020600020016000915054906101000a900473ffffffffffffffffffffffffffffffffffffffff1681565b7f000000000000000000000000000000000000000000000000000000000000000081565b60008054906101000a900460ff1681565b600460089054906101000a900463ffffffff1681565b60006107fe604051806020016040528060008152506105f5565b50905080610838576040517f4f6ddb1900000000000000000000000000000000000000000000000000000000815260040160405180910390fd5b60016000806101000a81548160ff0219169083600181111561085d5761085c6114a1565b5b021790555060007f000000000000000000000000000000000000000000000000000000000000000073ffffffffffffffffffffffffffffffffffffffff16635d3b1d30600354600460009054906101000a900467ffffffffffffffff166003600460089054906101000a900463ffffffff1660016040518663ffffffff1660e01b81526004016108f19594939291906110dc565b602060405180830381600087803b15801561090b57600080fd5b505af115801561091f573d6000803e3d6000fd5b505050506040513d601f19601f820116820180604052508101906109439190610ea2565b9050807fcd6e45c8998311cab7e9d4385596cac867e20a0587194b954fa3a731c93ce78b60405160405180910390a250505050565b600060018054905082600081518110610994576109936114d0565b5b60200260200101516109a69190611412565b90506000600182815481106109be576109bd6114d0565b5b9060005260206000200160009054906101000a900473ffffffffffffffffffffffffffffffffffffffff169050806004600c6101000a81548173ffffffffffffffffffffffffffffffffffffffff021916908373ffffffffffffffffffffffffffffffffffffffff160217905550600067ffffffffffffffff811115610a4757610a466114ff565b5b604051908082528060200260200182016040528015610a755781602001602082028036833780820191505090505b5060019080519060200190610a8b929190610baa565b5060008060006101000a81548160ff02191690836001811115610ab157610ab06114a1565b5b02179055504260028190555060008173ffffffffffffffffffffffffffffffffffffffff1647604051610ae39061101d565b60006040518083038185875af1925050503d8060008114610b20576040519150601f19603f3d011682016040523d82523d6000602084013e610b25565b606091505b5050905080610b60576040517fa1d04b3900000000000000000000000000000000000000000000000000000000815260040160405180910390fd5b8173ffffffffffffffffffffffffffffffffffffffff167f5b690ec4a06fe979403046eaeea5b3ce38524683c3001f662c8b5a829632f7df60405160405180910390a25050505050565b828054828255906000526020600020908101928215610c23579160200282015b82811115610c225782518260006101000a81548173ffffffffffffffffffffffffffffffffffffffff021916908373ffffffffffffffffffffffffffffffffffffffff16021790555091602001919060010190610bca565b5b509050610c309190610c34565b5090565b5b80821115610c4d576000816000905550600101610c35565b5090565b6000610c64610c5f846111f6565b6111d1565b90508083825260208201905082856020860282011115610c8757610c86611538565b5b60005b85811015610cb75781610c9d8882610db5565b845260208401935060208301925050600181019050610c8a565b5050509392505050565b6000610cd4610ccf84611222565b6111d1565b905082815260208101848484011115610cf057610cef61153d565b5b610cfb84828561139f565b509392505050565b600082601f830112610d1857610d17611533565b5b8135610d28848260208601610c51565b91505092915050565b60008083601f840112610d4757610d46611533565b5b8235905067ffffffffffffffff811115610d6457610d6361152e565b5b602083019150836001820283011115610d8057610d7f611538565b5b9250929050565b600082601f830112610d9c57610d9b611533565b5b8135610dac848260208601610cc1565b91505092915050565b600081359050610dc481611574565b92915050565b600081519050610dd981611574565b92915050565b60008060208385031215610df657610df5611547565b5b600083013567ffffffffffffffff811115610e1457610e13611542565b5b610e2085828601610d31565b92509250509250929050565b600060208284031215610e4257610e41611547565b5b600082013567ffffffffffffffff811115610e6057610e5f611542565b5b610e6c84828501610d87565b91505092915050565b600060208284031215610e8b57610e8a611547565b5b6000610e9984828501610db5565b91505092915050565b600060208284031215610eb857610eb7611547565b5b6000610ec684828501610dca565b91505092915050565b60008060408385031215610ee657610ee5611547565b5b6000610ef485828601610db5565b925050602083013567ffffffffffffffff811115610f1557610f14611542565b5b610f2185828601610d03565b9150509250929050565b610f34816112c0565b82525050565b610f43816112ae565b82525050565b610f52816112d2565b82525050565b610f61816112de565b82525050565b6000610f7282611253565b610f7c818561125e565b9350610f8c8185602086016113ae565b610f958161154c565b840191505092915050565b610fa981611357565b82525050565b610fb881611369565b82525050565b6000610fcb60008361126f565b9150610fd68261155d565b600082019050919050565b610fea816112fb565b82525050565b610ff981611329565b82525050565b61100881611333565b82525050565b61101781611343565b82525050565b600061102882610fbe565b9150819050919050565b60006020820190506110476000830184610f3a565b92915050565b60006020820190506110626000830184610f2b565b92915050565b600060408201905061107d6000830185610f3a565b61108a6020830184610f3a565b9392505050565b60006040820190506110a66000830185610f49565b81810360208301526110b88184610f67565b90509392505050565b60006020820190506110d66000830184610f58565b92915050565b600060a0820190506110f16000830188610f58565b6110fe602083018761100e565b61110b6040830186610fe1565b6111186060830185610fff565b6111256080830184610fff565b9695505050505050565b60006020820190506111446000830184610fa0565b92915050565b600060208201905061115f6000830184610faf565b92915050565b600060208201905061117a6000830184610fe1565b92915050565b60006020820190506111956000830184610ff0565b92915050565b60006020820190506111b06000830184610fff565b92915050565b60006020820190506111cb600083018461100e565b92915050565b60006111db6111ec565b90506111e782826113e1565b919050565b6000604051905090565b600067ffffffffffffffff821115611211576112106114ff565b5b602082029050602081019050919050565b600067ffffffffffffffff82111561123d5761123c6114ff565b5b6112468261154c565b9050602081019050919050565b600081519050919050565b600082825260208201905092915050565b600081905092915050565b600061128582611329565b915061129083611329565b9250828210156112a3576112a2611443565b5b828203905092915050565b60006112b982611309565b9050919050565b60006112cb82611309565b9050919050565b60008115159050919050565b6000819050919050565b60008190506112f682611560565b919050565b600061ffff82169050919050565b600073ffffffffffffffffffffffffffffffffffffffff82169050919050565b6000819050919050565b600063ffffffff82169050919050565b600067ffffffffffffffff82169050919050565b60006113628261137b565b9050919050565b6000611374826112e8565b9050919050565b60006113868261138d565b9050919050565b600061139882611309565b9050919050565b82818337600083830152505050565b60005b838110156113cc5780820151818401526020810190506113b1565b838111156113db576000848401525b50505050565b6113ea8261154c565b810181811067ffffffffffffffff82111715611409576114086114ff565b5b80604052505050565b600061141d82611329565b915061142883611329565b92508261143857611437611472565b5b828206905092915050565b7f4e487b7100000000000000000000000000000000000000000000000000000000600052601160045260246000fd5b7f4e487b7100000000000000000000000000000000000000000000000000000000600052601260045260246000fd5b7f4e487b7100000000000000000000000000000000000000000000000000000000600052602160045260246000fd5b7f4e487b7100000000000000000000000000000000000000000000000000000000600052603260045260246000fd5b7f4e487b7100000000000000000000000000000000000000000000000000000000600052604160045260246000fd5b600080fd5b600080fd5b600080fd5b600080fd5b600080fd5b600080fd5b6000601f19601f8301169050919050565b50565b60028110611571576115706114a1565b5b50565b61157d81611329565b811461158857600080fd5b5056fea264697066735822122051041d8af0aab9cbfd98d5aa94c1035f1324e0166626387b94f21dcd8a29de1264736f6c63430008070033",
  "devdoc": {
    "kind": "dev",
    "methods": {},
    "version": 1
  },
  "userdoc": {
    "kind": "user",
    "methods": {},
    "version": 1
  },
  "storageLayout": {
    "storage": [
      {
        "astId": 166,
        "contract": "contracts/Raffle.sol:Raffle",
        "label": "s_raffleState",
        "offset": 0,
        "slot": "0",
        "type": "t_enum(RaffleState)163"
      },
      {
        "astId": 173,
        "contract": "contracts/Raffle.sol:Raffle",
        "label": "s_players",
        "offset": 0,
        "slot": "1",
        "type": "t_array(t_address_payable)dyn_storage"
      },
      {
        "astId": 175,
        "contract": "contracts/Raffle.sol:Raffle",
        "label": "s_lastTimeStamp",
        "offset": 0,
        "slot": "2",
        "type": "t_uint256"
      },
      {
        "astId": 180,
        "contract": "contracts/Raffle.sol:Raffle",
        "label": "i_gasLane",
        "offset": 0,
        "slot": "3",
        "type": "t_bytes32"
      },
      {
        "astId": 182,
        "contract": "contracts/Raffle.sol:Raffle",
        "label": "i_subscriptionId",
        "offset": 0,
        "slot": "4",
        "type": "t_uint64"
      },
      {
        "astId": 184,
        "contract": "contracts/Raffle.sol:Raffle",
        "label": "i_callbackGasLimit",
        "offset": 8,
        "slot": "4",
        "type": "t_uint32"
      },
      {
        "astId": 192,
        "contract": "contracts/Raffle.sol:Raffle",
        "label": "s_recentWinner",
        "offset": 12,
        "slot": "4",
        "type": "t_address"
      }
    ],
    "types": {
      "t_address": {
        "encoding": "inplace",
        "label": "address",
        "numberOfBytes": "20"
      },
      "t_address_payable": {
        "encoding": "inplace",
        "label": "address payable",
        "numberOfBytes": "20"
      },
      "t_array(t_address_payable)dyn_storage": {
        "base": "t_address_payable",
        "encoding": "dynamic_array",
        "label": "address payable[]",
        "numberOfBytes": "32"
      },
      "t_bytes32": {
        "encoding": "inplace",
        "label": "bytes32",
        "numberOfBytes": "32"
      },
      "t_enum(RaffleState)163": {
        "encoding": "inplace",
        "label": "enum Raffle.RaffleState",
        "numberOfBytes": "1"
      },
      "t_uint256": {
        "encoding": "inplace",
        "label": "uint256",
        "numberOfBytes": "32"
      },
      "t_uint32": {
        "encoding": "inplace",
        "label": "uint32",
        "numberOfBytes": "4"
      },
      "t_uint64": {
        "encoding": "inplace",
        "label": "uint64",
        "numberOfBytes": "8"
      }
    }
  }
}